{"abi":[{"type":"constructor","inputs":[],"stateMutability":"nonpayable"},{"name":"send","type":"function","inputs":[{"name":"receiver","type":"address","internalType":"address"},{"name":"amount","type":"uint256","internalType":"uint256"}],"outputs":[],"stateMutability":"nonpayable"},{"name":"getBalance","type":"function","inputs":[{"name":"adr","type":"address","internalType":"address"}],"outputs":[{"name":"","type":"uint256","internalType":"uint256"}],"constant":true,"stateMutability":"view"}],"devdoc":{"kind":"dev","methods":{},"version":1},"source":"//pragma\npragma solidity ^0.6.12;\n\n//imports\n\n\n//clase --> contracts\n/*\n    - Contrato para alamacenar los blances de smrtCoin\n */\n\n contract smrtCoin {\n\n    //variables\n    mapping (address => uint) balances;\n\n    //constructor\n    constructor() public{\n        balances[msg.sender] = 1000;\n    }\n\n\n    //Metodos\n    function send(address receiver, uint amount) public {\n        require (balances[msg.sender] > amount);\n        balances[msg.sender] -= amount;\n        balances[receiver] += amount;\n    }\n\n    function getBalance(address adr) public view returns(uint){\n        return balances[adr];\n    }\n }\n","userdoc":{"kind":"user","methods":{},"version":1},"bytecode":"0x608060405234801561001057600080fd5b506103e86000803373ffffffffffffffffffffffffffffffffffffffff1673ffffffffffffffffffffffffffffffffffffffff16815260200190815260200160002081905550610245806100656000396000f3fe608060405234801561001057600080fd5b50600436106100365760003560e01c8063d0679d341461003b578063f8b2cb4f14610089575b600080fd5b6100876004803603604081101561005157600080fd5b81019080803573ffffffffffffffffffffffffffffffffffffffff169060200190929190803590602001909291905050506100e1565b005b6100cb6004803603602081101561009f57600080fd5b81019080803573ffffffffffffffffffffffffffffffffffffffff1690602001909291905050506101c7565b6040518082815260200191505060405180910390f35b806000803373ffffffffffffffffffffffffffffffffffffffff1673ffffffffffffffffffffffffffffffffffffffff168152602001908152602001600020541161012b57600080fd5b806000803373ffffffffffffffffffffffffffffffffffffffff1673ffffffffffffffffffffffffffffffffffffffff16815260200190815260200160002060008282540392505081905550806000808473ffffffffffffffffffffffffffffffffffffffff1673ffffffffffffffffffffffffffffffffffffffff168152602001908152602001600020600082825401925050819055505050565b60008060008373ffffffffffffffffffffffffffffffffffffffff1673ffffffffffffffffffffffffffffffffffffffff16815260200190815260200160002054905091905056fea2646970667358221220e2df4f087fc14c48995918d2c8b31e69959f3f51197140c99f55548ece4eb55a64736f6c634300060c0033","compiler":{"name":"solc","version":"0.6.12+commit.27d51765.Emscripten.clang"},"updatedAt":"2020-12-10T14:27:48.675Z","sourcePath":"/home/builduser/teams_workingdir/repo/contracts/smrtCoin.sol","networkType":"ethereum","contractName":"smrtCoin","schemaVersion":"3.3.2","immutableReferences":{}}