{
  "abi": [
    {
      "type": "constructor",
      "inputs": [],
      "stateMutability": "nonpayable"
    },
    {
      "name": "send",
      "type": "function",
      "inputs": [
        {
          "name": "receiver",
          "type": "address",
          "internalType": "address"
        },
        {
          "name": "amount",
          "type": "uint256",
          "internalType": "uint256"
        }
      ],
      "outputs": [],
      "stateMutability": "nonpayable"
    },
    {
      "name": "getBalance",
      "type": "function",
      "inputs": [],
      "outputs": [
        {
          "name": "",
          "type": "uint256",
          "internalType": "uint256"
        }
      ],
      "constant": true,
      "stateMutability": "view"
    }
  ],
  "devdoc": {
    "kind": "dev",
    "methods": {},
    "version": 1
  },
  "source": "//pragma\npragma solidity ^0.6.12;\n\n//imports\n\n\n//clase --> contracts\n/*\n    - Contrato para alamacenar los blances de smrtCoin\n */\n\n contract smrtCoin {\n\n    //variables\n    mapping (address => uint) balances;\n\n    //constructor\n    constructor() public{\n        balances[msg.sender] = 1000;\n    }\n\n\n    //Metodos\n    function send(address receiver, uint amount) public {\n        require (balances[msg.sender] > amount);\n        balances[msg.sender] -= amount;\n        balances[receiver] += amount;\n    }\n\n    function getBalance() public view returns(uint){\n        return balances[msg.sender];\n    }\n }",
  "userdoc": {
    "kind": "user",
    "methods": {},
    "version": 1
  },
  "bytecode": "0x608060405234801561001057600080fd5b506103e86000803373ffffffffffffffffffffffffffffffffffffffff1673ffffffffffffffffffffffffffffffffffffffff16815260200190815260200160002081905550610209806100656000396000f3fe608060405234801561001057600080fd5b50600436106100365760003560e01c806312065fe01461003b578063d0679d3414610059575b600080fd5b6100436100a7565b6040518082815260200191505060405180910390f35b6100a56004803603604081101561006f57600080fd5b81019080803573ffffffffffffffffffffffffffffffffffffffff169060200190929190803590602001909291905050506100ed565b005b60008060003373ffffffffffffffffffffffffffffffffffffffff1673ffffffffffffffffffffffffffffffffffffffff16815260200190815260200160002054905090565b806000803373ffffffffffffffffffffffffffffffffffffffff1673ffffffffffffffffffffffffffffffffffffffff168152602001908152602001600020541161013757600080fd5b806000803373ffffffffffffffffffffffffffffffffffffffff1673ffffffffffffffffffffffffffffffffffffffff16815260200190815260200160002060008282540392505081905550806000808473ffffffffffffffffffffffffffffffffffffffff1673ffffffffffffffffffffffffffffffffffffffff16815260200190815260200160002060008282540192505081905550505056fea264697066735822122088f773d91c07a0c5c37afe46f82c7d0df13933236fcf6c6005e8ea9cac780a2164736f6c634300060c0033",
  "compiler": {
    "name": "solc",
    "version": "0.6.12+commit.27d51765.Emscripten.clang"
  },
  "updatedAt": "2020-12-09T21:43:13.225Z",
  "sourcePath": "/home/builduser/teams_workingdir/repo/contracts/smrtCoin.sol",
  "networkType": "ethereum",
  "contractName": "smrtCoin",
  "schemaVersion": "3.3.2",
  "immutableReferences": {}
}