{
  "contractName": "smrtCoin",
  "abi": [
    {
      "inputs": [],
      "stateMutability": "nonpayable",
      "type": "constructor"
    },
    {
      "inputs": [
        {
          "internalType": "address",
          "name": "receiver",
          "type": "address"
        },
        {
          "internalType": "uint256",
          "name": "amount",
          "type": "uint256"
        }
      ],
      "name": "send",
      "outputs": [],
      "stateMutability": "nonpayable",
      "type": "function"
    },
    {
      "inputs": [
        {
          "internalType": "address",
          "name": "adr",
          "type": "address"
        }
      ],
      "name": "getBalance",
      "outputs": [
        {
          "internalType": "uint256",
          "name": "",
          "type": "uint256"
        }
      ],
      "stateMutability": "view",
      "type": "function"
    }
  ],
  "bytecode": "0x608060405234801561001057600080fd5b506103e86000803373ffffffffffffffffffffffffffffffffffffffff1673ffffffffffffffffffffffffffffffffffffffff16815260200190815260200160002081905550610245806100656000396000f3fe608060405234801561001057600080fd5b50600436106100365760003560e01c8063d0679d341461003b578063f8b2cb4f14610089575b600080fd5b6100876004803603604081101561005157600080fd5b81019080803573ffffffffffffffffffffffffffffffffffffffff169060200190929190803590602001909291905050506100e1565b005b6100cb6004803603602081101561009f57600080fd5b81019080803573ffffffffffffffffffffffffffffffffffffffff1690602001909291905050506101c7565b6040518082815260200191505060405180910390f35b806000803373ffffffffffffffffffffffffffffffffffffffff1673ffffffffffffffffffffffffffffffffffffffff168152602001908152602001600020541161012b57600080fd5b806000803373ffffffffffffffffffffffffffffffffffffffff1673ffffffffffffffffffffffffffffffffffffffff16815260200190815260200160002060008282540392505081905550806000808473ffffffffffffffffffffffffffffffffffffffff1673ffffffffffffffffffffffffffffffffffffffff168152602001908152602001600020600082825401925050819055505050565b60008060008373ffffffffffffffffffffffffffffffffffffffff1673ffffffffffffffffffffffffffffffffffffffff16815260200190815260200160002054905091905056fea2646970667358221220c2b1aa67ccf7cb298fbd0f61f95eaadd05a08e50e828e1f8637aa7297bde6a9f64736f6c634300060c0033",
  "immutableReferences": {},
  "source": "//pragma\r\npragma solidity ^0.6.12;\r\n\r\n//imports\r\n\r\n\r\n//clase --> contracts\r\n/*\r\n    - Contrato para alamacenar los blances de smrtCoin\r\n */\r\n\r\n contract smrtCoin {\r\n\r\n    //variables\r\n    mapping (address => uint) balances;\r\n\r\n    //constructor\r\n    constructor() public{\r\n        balances[msg.sender] = 1000;\r\n    }\r\n\r\n\r\n    //Metodos\r\n    function send(address receiver, uint amount) public {\r\n        require (balances[msg.sender] > amount);\r\n        balances[msg.sender] -= amount;\r\n        balances[receiver] += amount;\r\n    }\r\n\r\n    function getBalance(address adr) public view returns(uint){\r\n        return balances[adr];\r\n    }\r\n }",
  "sourcePath": "C:/Users/Giorlando/desktop/smrtCoin/contracts/smrtCoin.sol",
  "compiler": {
    "name": "solc",
    "version": "0.6.12+commit.27d51765.Emscripten.clang"
  },
  "schemaVersion": "3.3.2",
  "updatedAt": "2020-12-09T23:32:59.484Z",
  "devdoc": {
    "kind": "dev",
    "methods": {},
    "version": 1
  },
  "userdoc": {
    "kind": "user",
    "methods": {},
    "version": 1
  }
}